:100000000C9461000C947E000C947E000C947E0095
:100010000C947E000C947E000C947E000C947E0068
:100020000C947E000C947E000C947E000C947E0058
:100030000C947E000C947E000C947E000C947E0048
:100040000C943B020C947E000C947E000C947E0079
:100050000C947E000C947E000C947E000C947E0028
:100060000C947E000C947E00000000002400270009
:100070002A0000000000250028002B0000000000DE
:1000800023002600290004040404040404040202DA
:100090000202020203030303030301020408102007
:1000A0004080010204081020010204081020000012
:1000B0000007000201000003040600000000000029
:1000C000000011241FBECFEFD8E0DEBFCDBF11E08E
:1000D000A0E0B1E0E4EAFCE002C005900D92A63099
:1000E000B107D9F711E0A6E0B1E001C01D92A63139
:1000F000B107E1F70E9434020C9450060C94000002
:1001000088E060E00E94F90387E060E00E94F90364
:100110008CE060E00E94F9038BE060E00E94F9034C
:1001200082E06FEF70E00E947A038EE06FEF70E084
:100130000E947A038FE06FEF70E00E947A0380E103
:100140006FEF70E00E947A0381E161E00E94F903A1
:10015000089588E060E00E94F90387E061E00E9472
:10016000F9038CE060E00E94F9038BE061E00E94FB
:10017000F90380E16FEF70E00E947A0382E060E0B3
:1001800070E00E947A038EE060E070E00E947A03E3
:100190008FE060E070E00E947A0381E160E00E94FD
:1001A000F903089587E060E00E94F90388E061E0C8
:1001B0000E94F9038BE060E00E94F9038CE061E0AB
:1001C0000E94F9038FE06FEF70E00E947A0382E0F3
:1001D00060E070E00E947A038EE060E070E00E94D0
:1001E0007A0380E160E070E00E947A0381E160E0E0
:1001F0000E94F903089587E060E00E94F90388E017
:1002000061E00E94F9038CE060E00E94F9038BE05A
:1002100061E00E94F90382E06FEF70E00E947A03D0
:100220008EE060E070E00E947A038FE060E070E0B2
:100230000E947A0380E160E070E00E947A0381E12D
:1002400060E00E94F903089588E060E00E94F903ED
:1002500087E061E00E94F9038BE060E00E94F9030F
:100260008CE061E00E94F90381E161E00E94F90302
:1002700082E060E070E00E947A038EE060E070E06F
:100280000E947A038FE060E070E00E947A0380E1D0
:1002900060E070E00E947A0308950F931F93CF935C
:1002A000DF9364E670E00E94B505EB0100E010E02A
:1002B00015C08DE060910C010E94F90390E08091DF
:1002C0000C01882309F491E090930C0164E670E03E
:1002D00080E090E00E94B7020F5F1F4F0C171D07D0
:1002E00044F3DF91CF911F910F91089580910A01FE
:1002F00090910B01059690930B0180930A0161E0A8
:1003000070E080E090E027E030E040E050E00E94C4
:100310000F05709307016093060162E070E080E0D2
:1003200090E02AE030E040E050E00E940F0570933A
:1003300009016093080180910601909107018330C3
:100340009105C1F08430910534F48130910561F05C
:10035000029781F50CC08530910531F0853091050B
:1003600094F0069739F50FC00E9424010EC00E9438
:10037000D20002C00E94A900809108019091090159
:1003800024E630E00BC00E94FB0080910A019091AE
:100390000B010A962091080130910901AC01249FBC
:1003A000C001259F900D349F900D11249093090159
:1003B0008093080180910801909109010E944D01EC
:1003C0000E94800084E690E00E944D01089586E03E
:1003D00060E00E94D30388E061E00E94D30387E0DD
:1003E00061E00E94D30389E061E00E94D3038BE0C7
:1003F00061E00E94D3038CE061E00E94D3038AE0B5
:1004000061E00E94D3038DE061E00E94D30382E0AB
:1004100061E00E94D3038EE061E00E94D3038FE08D
:1004200061E00E94D30380E161E00E94D30381E197
:1004300061E00E94D3038DE061E00E94D30389E074
:1004400061E00E94F9038AE061E00E94F9031092E2
:100450000B0110920A0180ED97E00E944D018DE0A2
:1004600061E00E94F90308950E941A030E94E701C7
:100470000E947601FDCF1F920F920FB60F921124AA
:100480002F933F938F939F93AF93BF9380911101CD
:1004900090911201A0911301B091140130911501B6
:1004A0000196A11DB11D232F2D5F2D3720F02D5753
:1004B0000196A11DB11D2093150180931101909308
:1004C0001201A0931301B093140180910D0190913A
:1004D0000E01A0910F01B09110010196A11DB11D57
:1004E00080930D0190930E01A0930F01B093100122
:1004F000BF91AF919F918F913F912F910F900FBE20
:100500000F901F9018958FB7F8942091110130919A
:10051000120140911301509114018FBFB901CA011A
:1005200008959FB7F89420910D0130910E014091EC
:100530000F015091100186B5A89B06C08F3F21F096
:100540002F5F3F4F4F4F5F4F9FBF542F432F322F8F
:100550002227280F311D411D511D82E0220F331F1C
:10056000441F551F8A95D1F7B901CA0108959B010F
:10057000AC017FB7F89480910D0190910E01A0918C
:100580000F01B091100166B5A89B05C06F3F19F02F
:100590000196A11DB11D7FBFBA2FA92F982F8827C3
:1005A000860F911DA11DB11D62E0880F991FAA1F22
:1005B000BB1F6A95D1F7BC012DC0FFB7F89480919D
:1005C0000D0190910E01A0910F01B0911001E6B5BF
:1005D000A89B05C0EF3F19F00196A11DB11DFFBFFB
:1005E000BA2FA92F982F88278E0F911DA11DB11DFD
:1005F000E2E0880F991FAA1FBB1FEA95D1F7861B5F
:10060000970B885E9340C8F22150304040405040E4
:1006100068517C4F211531054105510571F608954A
:10062000019739F0880F991F880F991F029701973A
:10063000F1F70895789484B5826084BD84B58160B3
:1006400084BD85B5826085BD85B5816085BDEEE6DA
:10065000F0E0808181608083E1E8F0E010828081B9
:1006600082608083808181608083E0E8F0E0808127
:1006700081608083E1EBF0E0808184608083E0EB47
:10068000F0E0808181608083EAE7F0E0808184602F
:10069000808380818260808380818160808380818B
:1006A000806880831092C1000895809300010895AE
:1006B000982F8E3008F09E5097708091000182959F
:1006C000880F880F807C892B80937C0080917A0032
:1006D000806480937A0080917A0086FDFCCF20911F
:1006E000780040917900942F80E030E0282B392B5E
:1006F000C90108951F93CF93DF93182FEB0161E099
:100700000E94D303E12FF0E0E255FF4F8491833044
:1007100051F480918000806880938000D09389009C
:10072000C09388003CC0843051F480918000806286
:1007300080938000D0938B00C0938A0030C08130BA
:1007400039F4209729F184B5806884BDC7BD27C0DE
:10075000823039F42097E1F084B5806284BDC8BD51
:100760001EC0863041F48091B00080688093B00054
:10077000C093B30014C0873041F48091B000806210
:100780008093B000C093B4000AC0C038D1051CF4F7
:10079000812F60E002C0812F61E00E94F903DF91A8
:1007A000CF911F910895482F50E0CA0186569F4F60
:1007B000FC0124914A575F4FFA0184918823C1F0CC
:1007C000E82FF0E0EE0FFF1FE859FF4FA591B4911D
:1007D000662341F49FB7F8948C91209582238C93E3
:1007E0009FBF08959FB7F8948C91822B8C939FBFE5
:1007F0000895482F50E0CA0182559F4FFC01249173
:10080000CA0186569F4FFC0134914A575F4FFA0147
:100810009491992309F440C0222331F1233021F42B
:10082000809180008F7705C0243031F48091800062
:100830008F7D8093800018C0213019F484B58F77A4
:1008400004C0223021F484B58F7D84BD0DC02630D4
:1008500021F48091B0008F7705C0273029F4809172
:10086000B0008F7D8093B000E92FF0E0EE0FFF1F06
:10087000EE58FF4FA591B491662341F49FB7F894C9
:100880008C91309583238C939FBF08959FB7F894E4
:100890008C91832B8C939FBF0895682F70E0CB01C0
:1008A00082559F4FFC012491CB0186569F4FFC013E
:1008B00044916A577F4FFB019491992319F420E0EA
:1008C00030E038C0222331F1233021F480918000C0
:1008D0008F7705C0243031F4809180008F7D809324
:1008E000800018C0213019F484B58F7704C02230FD
:1008F00021F484B58F7D84BD0DC0263021F4809114
:10090000B0008F7705C0273029F48091B0008F7D2B
:100910008093B000892F90E0880F991F84589F4FD3
:10092000FC01A591B4918C9120E030E0842311F07A
:1009300021E030E0C90108952F923F924F925F92DB
:100940006F927F928F929F92AF92BF92CF92DF92DF
:10095000EF92FF920F931F93DF93CF93CDB7DEB744
:100960003B014C0119012A016D897E898F89988D7F
:100970006A197B098C099D09621A730A840A950A0F
:10098000A40193010E949605E218F30804091509D1
:10099000A80197010E94C8052A0D3B1D4C1D5D1D35
:1009A000B901CA01CF91DF911F910F91FF90EF9094
:1009B000DF90CF90BF90AF909F908F907F906F907F
:1009C0005F904F903F902F900895089570E0382FDA
:1009D00020E0622B732BCB010895EF92FF920F93CF
:1009E0001F937B018C01611571058105910529F427
:1009F00020E030E040E050E00BC00E948805A801F4
:100A000097010E94C805AC01CB01DA019C01AD0140
:100A1000B901CA011F910F91FF90EF900895EF92D5
:100A2000FF920F931F937B018C016217730784075A
:100A3000950764F4261B370B480B590BCA01B90103
:100A40000E94ED04E60EF71E081F191FB701C8012A
:100A50001F910F91FF90EF900895009729F0BC012E
:100A600080E090E00E948D050895A0E0B0E0EBE307
:100A7000F5E00C942106EC01A880B980CA80DB80E7
:100A8000A114B104C104D10441F484E2A82E89ED7B
:100A9000B82E8BE5C82E87E0D82EC601B5012DE112
:100AA00033EF41E050E00E94C80527EA31E440E01E
:100AB00050E00E9496057B018C01C601B5012DE135
:100AC00033EF41E050E00E94C805CA01B9012CEEA5
:100AD00034EF4FEF5FEF0E9496056E0D7F1D801F74
:100AE000911F97FF04C06150704080409048688318
:100AF00079838A839B839B01AC015F77B901CA012B
:100B0000CDB7DEB7EAE00C943D060E9435050895A6
:100B100081E091E00E943505089560930101709392
:100B2000020180930301909304010895629FD00114
:100B3000739FF001829FE00DF11D649FE00DF11D98
:100B4000929FF00D839FF00D749FF00D659FF00D47
:100B50009927729FB00DE11DF91F639FB00DE11D34
:100B6000F91FBD01CF011124089597FB092E072617
:100B70000AD077FD04D027D006D000201AF4709553
:100B800061957F4F0895F6F7909581959F4F089551
:100B900097FB092E05260ED057FD04D028D00AD089
:100BA000001C38F450954095309521953F4F4F4F9C
:100BB0005F4F0895F6F790958095709561957F4FFA
:100BC0008F4F9F4F0895AA1BBB1B51E107C0AA1F5F
:100BD000BB1FA617B70710F0A61BB70B881F991FDE
:100BE0005A95A9F780959095BC01CD010895A1E291
:100BF0001A2EAA1BBB1BFD010DC0AA1FBB1FEE1F97
:100C0000FF1FA217B307E407F50720F0A21BB30BE1
:100C1000E40BF50B661F771F881F991F1A9469F75D
:100C200060957095809590959B01AC01BD01CF01B9
:100C300008952F923F924F925F926F927F928F9280
:100C40009F92AF92BF92CF92DF92EF92FF920F935B
:100C50001F93CF93DF93CDB7DEB7CA1BDB0B0FB665
:100C6000F894DEBF0FBECDBF09942A883988488822
:100C70005F846E847D848C849B84AA84B984C884B8
:100C8000DF80EE80FD800C811B81AA81B981CE0FAF
:100C9000D11D0FB6F894DEBF0FBECDBFED01089594
:040CA000F894FFCFF6
:060CA40001010000000048
:00000001FF
